{
  "_format": "hh-sol-artifact-1",
  "contractName": "Base",
  "sourceName": "contracts/Base.sol",
  "abi": [
    {
      "inputs": [],
      "stateMutability": "nonpayable",
      "type": "constructor"
    },
    {
      "anonymous": false,
      "inputs": [
        {
          "indexed": true,
          "internalType": "address",
          "name": "account",
          "type": "address"
        },
        {
          "indexed": true,
          "internalType": "address",
          "name": "operator",
          "type": "address"
        },
        {
          "indexed": false,
          "internalType": "bool",
          "name": "approved",
          "type": "bool"
        }
      ],
      "name": "ApprovalForAll",
      "type": "event"
    },
    {
      "anonymous": false,
      "inputs": [
        {
          "indexed": true,
          "internalType": "address",
          "name": "previousOwner",
          "type": "address"
        },
        {
          "indexed": true,
          "internalType": "address",
          "name": "newOwner",
          "type": "address"
        }
      ],
      "name": "OwnershipTransferred",
      "type": "event"
    },
    {
      "anonymous": false,
      "inputs": [
        {
          "indexed": true,
          "internalType": "address",
          "name": "operator",
          "type": "address"
        },
        {
          "indexed": true,
          "internalType": "address",
          "name": "from",
          "type": "address"
        },
        {
          "indexed": true,
          "internalType": "address",
          "name": "to",
          "type": "address"
        },
        {
          "indexed": false,
          "internalType": "uint256[]",
          "name": "ids",
          "type": "uint256[]"
        },
        {
          "indexed": false,
          "internalType": "uint256[]",
          "name": "values",
          "type": "uint256[]"
        }
      ],
      "name": "TransferBatch",
      "type": "event"
    },
    {
      "anonymous": false,
      "inputs": [
        {
          "indexed": true,
          "internalType": "address",
          "name": "operator",
          "type": "address"
        },
        {
          "indexed": true,
          "internalType": "address",
          "name": "from",
          "type": "address"
        },
        {
          "indexed": true,
          "internalType": "address",
          "name": "to",
          "type": "address"
        },
        {
          "indexed": false,
          "internalType": "uint256",
          "name": "id",
          "type": "uint256"
        },
        {
          "indexed": false,
          "internalType": "uint256",
          "name": "value",
          "type": "uint256"
        }
      ],
      "name": "TransferSingle",
      "type": "event"
    },
    {
      "anonymous": false,
      "inputs": [
        {
          "indexed": false,
          "internalType": "string",
          "name": "value",
          "type": "string"
        },
        {
          "indexed": true,
          "internalType": "uint256",
          "name": "id",
          "type": "uint256"
        }
      ],
      "name": "URI",
      "type": "event"
    },
    {
      "inputs": [
        {
          "internalType": "address",
          "name": "account",
          "type": "address"
        },
        {
          "internalType": "uint256",
          "name": "id",
          "type": "uint256"
        }
      ],
      "name": "balanceOf",
      "outputs": [
        {
          "internalType": "uint256",
          "name": "",
          "type": "uint256"
        }
      ],
      "stateMutability": "view",
      "type": "function"
    },
    {
      "inputs": [
        {
          "internalType": "address[]",
          "name": "accounts",
          "type": "address[]"
        },
        {
          "internalType": "uint256[]",
          "name": "ids",
          "type": "uint256[]"
        }
      ],
      "name": "balanceOfBatch",
      "outputs": [
        {
          "internalType": "uint256[]",
          "name": "",
          "type": "uint256[]"
        }
      ],
      "stateMutability": "view",
      "type": "function"
    },
    {
      "inputs": [
        {
          "internalType": "address",
          "name": "account",
          "type": "address"
        },
        {
          "internalType": "uint256",
          "name": "id",
          "type": "uint256"
        },
        {
          "internalType": "uint256",
          "name": "value",
          "type": "uint256"
        }
      ],
      "name": "burn",
      "outputs": [],
      "stateMutability": "nonpayable",
      "type": "function"
    },
    {
      "inputs": [
        {
          "internalType": "address",
          "name": "account",
          "type": "address"
        },
        {
          "internalType": "uint256[]",
          "name": "ids",
          "type": "uint256[]"
        },
        {
          "internalType": "uint256[]",
          "name": "values",
          "type": "uint256[]"
        }
      ],
      "name": "burnBatch",
      "outputs": [],
      "stateMutability": "nonpayable",
      "type": "function"
    },
    {
      "inputs": [
        {
          "internalType": "address",
          "name": "account",
          "type": "address"
        },
        {
          "internalType": "address",
          "name": "operator",
          "type": "address"
        }
      ],
      "name": "isApprovedForAll",
      "outputs": [
        {
          "internalType": "bool",
          "name": "",
          "type": "bool"
        }
      ],
      "stateMutability": "view",
      "type": "function"
    },
    {
      "inputs": [
        {
          "internalType": "uint256",
          "name": "tokenId",
          "type": "uint256"
        }
      ],
      "name": "mint",
      "outputs": [],
      "stateMutability": "nonpayable",
      "type": "function"
    },
    {
      "inputs": [],
      "name": "mintTypes",
      "outputs": [
        {
          "internalType": "enum Base.MintTypes",
          "name": "",
          "type": "uint8"
        }
      ],
      "stateMutability": "view",
      "type": "function"
    },
    {
      "inputs": [],
      "name": "owner",
      "outputs": [
        {
          "internalType": "address",
          "name": "",
          "type": "address"
        }
      ],
      "stateMutability": "view",
      "type": "function"
    },
    {
      "inputs": [],
      "name": "renounceOwnership",
      "outputs": [],
      "stateMutability": "nonpayable",
      "type": "function"
    },
    {
      "inputs": [
        {
          "internalType": "address",
          "name": "from",
          "type": "address"
        },
        {
          "internalType": "address",
          "name": "to",
          "type": "address"
        },
        {
          "internalType": "uint256[]",
          "name": "ids",
          "type": "uint256[]"
        },
        {
          "internalType": "uint256[]",
          "name": "amounts",
          "type": "uint256[]"
        },
        {
          "internalType": "bytes",
          "name": "data",
          "type": "bytes"
        }
      ],
      "name": "safeBatchTransferFrom",
      "outputs": [],
      "stateMutability": "nonpayable",
      "type": "function"
    },
    {
      "inputs": [
        {
          "internalType": "address",
          "name": "from",
          "type": "address"
        },
        {
          "internalType": "address",
          "name": "to",
          "type": "address"
        },
        {
          "internalType": "uint256",
          "name": "id",
          "type": "uint256"
        },
        {
          "internalType": "uint256",
          "name": "amount",
          "type": "uint256"
        },
        {
          "internalType": "bytes",
          "name": "data",
          "type": "bytes"
        }
      ],
      "name": "safeTransferFrom",
      "outputs": [],
      "stateMutability": "nonpayable",
      "type": "function"
    },
    {
      "inputs": [
        {
          "internalType": "address",
          "name": "operator",
          "type": "address"
        },
        {
          "internalType": "bool",
          "name": "approved",
          "type": "bool"
        }
      ],
      "name": "setApprovalForAll",
      "outputs": [],
      "stateMutability": "nonpayable",
      "type": "function"
    },
    {
      "inputs": [
        {
          "internalType": "bytes4",
          "name": "interfaceId",
          "type": "bytes4"
        }
      ],
      "name": "supportsInterface",
      "outputs": [
        {
          "internalType": "bool",
          "name": "",
          "type": "bool"
        }
      ],
      "stateMutability": "view",
      "type": "function"
    },
    {
      "inputs": [
        {
          "internalType": "address",
          "name": "newOwner",
          "type": "address"
        }
      ],
      "name": "transferOwnership",
      "outputs": [],
      "stateMutability": "nonpayable",
      "type": "function"
    },
    {
      "inputs": [
        {
          "internalType": "uint256",
          "name": "",
          "type": "uint256"
        }
      ],
      "name": "uri",
      "outputs": [
        {
          "internalType": "string",
          "name": "",
          "type": "string"
        }
      ],
      "stateMutability": "view",
      "type": "function"
    }
  ],
  "bytecode": "0x60806040523480156200001157600080fd5b506040518060200160405280600081525062000033816200005a60201b60201c565b5062000054620000486200006f60201b60201c565b6200007760201b60201c565b6200049e565b80600290816200006b9190620003b7565b5050565b600033905090565b6000600360009054906101000a900473ffffffffffffffffffffffffffffffffffffffff16905081600360006101000a81548173ffffffffffffffffffffffffffffffffffffffff021916908373ffffffffffffffffffffffffffffffffffffffff1602179055508173ffffffffffffffffffffffffffffffffffffffff168173ffffffffffffffffffffffffffffffffffffffff167f8be0079c531659141344cd1fd0a4f28419497f9722a3daafe3b4186f6b6457e060405160405180910390a35050565b600081519050919050565b7f4e487b7100000000000000000000000000000000000000000000000000000000600052604160045260246000fd5b7f4e487b7100000000000000000000000000000000000000000000000000000000600052602260045260246000fd5b60006002820490506001821680620001bf57607f821691505b602082108103620001d557620001d462000177565b5b50919050565b60008190508160005260206000209050919050565b60006020601f8301049050919050565b600082821b905092915050565b6000600883026200023f7fffffffffffffffffffffffffffffffffffffffffffffffffffffffffffffffff8262000200565b6200024b868362000200565b95508019841693508086168417925050509392505050565b6000819050919050565b6000819050919050565b600062000298620002926200028c8462000263565b6200026d565b62000263565b9050919050565b6000819050919050565b620002b48362000277565b620002cc620002c3826200029f565b8484546200020d565b825550505050565b600090565b620002e3620002d4565b620002f0818484620002a9565b505050565b5b8181101562000318576200030c600082620002d9565b600181019050620002f6565b5050565b601f82111562000367576200033181620001db565b6200033c84620001f0565b810160208510156200034c578190505b620003646200035b85620001f0565b830182620002f5565b50505b505050565b600082821c905092915050565b60006200038c600019846008026200036c565b1980831691505092915050565b6000620003a7838362000379565b9150826002028217905092915050565b620003c2826200013d565b67ffffffffffffffff811115620003de57620003dd62000148565b5b620003ea8254620001a6565b620003f78282856200031c565b600060209050601f8311600181146200042f57600084156200041a578287015190505b62000426858262000399565b86555062000496565b601f1984166200043f86620001db565b60005b82811015620004695784890151825560018201915060208501945060208101905062000442565b8683101562000489578489015162000485601f89168262000379565b8355505b6001600288020188555050505b505050505050565b6135b580620004ae6000396000f3fe608060405234801561001057600080fd5b50600436106100f45760003560e01c8063715018a611610097578063e985e9c511610066578063e985e9c51461026f578063f242432a1461029f578063f2fde38b146102bb578063f5298aca146102d7576100f4565b8063715018a61461020f5780638da5cb5b14610219578063a0712d6814610237578063a22cb46514610253576100f4565b806310b3ef54116100d357806310b3ef54146101895780632eb2c2d6146101a75780634e1273f4146101c35780636b20c454146101f3576100f4565b8062fdd58e146100f957806301ffc9a7146101295780630e89341c14610159575b600080fd5b610113600480360381019061010e9190611f96565b6102f3565b6040516101209190611fe5565b60405180910390f35b610143600480360381019061013e9190612058565b6103bb565b60405161015091906120a0565b60405180910390f35b610173600480360381019061016e91906120bb565b61049d565b6040516101809190612178565b60405180910390f35b610191610531565b60405161019e9190612211565b60405180910390f35b6101c160048036038101906101bc9190612429565b610544565b005b6101dd60048036038101906101d891906125bb565b6105e5565b6040516101ea91906126f1565b60405180910390f35b61020d60048036038101906102089190612713565b6106fe565b005b61021761079b565b005b6102216107af565b60405161022e91906127ad565b60405180910390f35b610251600480360381019061024c91906120bb565b6107d9565b005b61026d600480360381019061026891906127f4565b610886565b005b61028960048036038101906102849190612834565b61089c565b60405161029691906120a0565b60405180910390f35b6102b960048036038101906102b49190612874565b610930565b005b6102d560048036038101906102d0919061290b565b6109d1565b005b6102f160048036038101906102ec9190612938565b610a54565b005b60008073ffffffffffffffffffffffffffffffffffffffff168373ffffffffffffffffffffffffffffffffffffffff1603610363576040517f08c379a000000000000000000000000000000000000000000000000000000000815260040161035a906129fd565b60405180910390fd5b60008083815260200190815260200160002060008473ffffffffffffffffffffffffffffffffffffffff1673ffffffffffffffffffffffffffffffffffffffff16815260200190815260200160002054905092915050565b60007fd9b67a26000000000000000000000000000000000000000000000000000000007bffffffffffffffffffffffffffffffffffffffffffffffffffffffff1916827bffffffffffffffffffffffffffffffffffffffffffffffffffffffff1916148061048657507f0e89341c000000000000000000000000000000000000000000000000000000007bffffffffffffffffffffffffffffffffffffffffffffffffffffffff1916827bffffffffffffffffffffffffffffffffffffffffffffffffffffffff1916145b80610496575061049582610af1565b5b9050919050565b6060600280546104ac90612a4c565b80601f01602080910402602001604051908101604052809291908181526020018280546104d890612a4c565b80156105255780601f106104fa57610100808354040283529160200191610525565b820191906000526020600020905b81548152906001019060200180831161050857829003601f168201915b50505050509050919050565b600360149054906101000a900460ff1681565b61054c610b5b565b73ffffffffffffffffffffffffffffffffffffffff168573ffffffffffffffffffffffffffffffffffffffff16148061059257506105918561058c610b5b565b61089c565b5b6105d1576040517f08c379a00000000000000000000000000000000000000000000000000000000081526004016105c890612aef565b60405180910390fd5b6105de8585858585610b63565b5050505050565b6060815183511461062b576040517f08c379a000000000000000000000000000000000000000000000000000000000815260040161062290612b81565b60405180910390fd5b6000835167ffffffffffffffff81111561064857610647612231565b5b6040519080825280602002602001820160405280156106765781602001602082028036833780820191505090505b50905060005b84518110156106f3576106c385828151811061069b5761069a612ba1565b5b60200260200101518583815181106106b6576106b5612ba1565b5b60200260200101516102f3565b8282815181106106d6576106d5612ba1565b5b602002602001018181525050806106ec90612bff565b905061067c565b508091505092915050565b610706610b5b565b73ffffffffffffffffffffffffffffffffffffffff168373ffffffffffffffffffffffffffffffffffffffff16148061074c575061074b83610746610b5b565b61089c565b5b61078b576040517f08c379a000000000000000000000000000000000000000000000000000000000815260040161078290612aef565b60405180910390fd5b610796838383610e84565b505050565b6107a3611152565b6107ad60006111d0565b565b6000600360009054906101000a900473ffffffffffffffffffffffffffffffffffffffff16905090565b600060028111156107ed576107ec61219a565b5b81148061080c5750600160028111156108095761080861219a565b5b81145b8061082857506002808111156108255761082461219a565b5b81145b610867576040517f08c379a000000000000000000000000000000000000000000000000000000000815260040161085e90612c93565b60405180910390fd5b6108833382600160405180602001604052806000815250611296565b50565b610898610891610b5b565b8383611446565b5050565b6000600160008473ffffffffffffffffffffffffffffffffffffffff1673ffffffffffffffffffffffffffffffffffffffff16815260200190815260200160002060008373ffffffffffffffffffffffffffffffffffffffff1673ffffffffffffffffffffffffffffffffffffffff16815260200190815260200160002060009054906101000a900460ff16905092915050565b610938610b5b565b73ffffffffffffffffffffffffffffffffffffffff168573ffffffffffffffffffffffffffffffffffffffff16148061097e575061097d85610978610b5b565b61089c565b5b6109bd576040517f08c379a00000000000000000000000000000000000000000000000000000000081526004016109b490612aef565b60405180910390fd5b6109ca85858585856115b2565b5050505050565b6109d9611152565b600073ffffffffffffffffffffffffffffffffffffffff168173ffffffffffffffffffffffffffffffffffffffff1603610a48576040517f08c379a0000000000000000000000000000000000000000000000000000000008152600401610a3f90612d25565b60405180910390fd5b610a51816111d0565b50565b610a5c610b5b565b73ffffffffffffffffffffffffffffffffffffffff168373ffffffffffffffffffffffffffffffffffffffff161480610aa25750610aa183610a9c610b5b565b61089c565b5b610ae1576040517f08c379a0000000000000000000000000000000000000000000000000000000008152600401610ad890612aef565b60405180910390fd5b610aec83838361184d565b505050565b60007f01ffc9a7000000000000000000000000000000000000000000000000000000007bffffffffffffffffffffffffffffffffffffffffffffffffffffffff1916827bffffffffffffffffffffffffffffffffffffffffffffffffffffffff1916149050919050565b600033905090565b8151835114610ba7576040517f08c379a0000000000000000000000000000000000000000000000000000000008152600401610b9e90612db7565b60405180910390fd5b600073ffffffffffffffffffffffffffffffffffffffff168473ffffffffffffffffffffffffffffffffffffffff1603610c16576040517f08c379a0000000000000000000000000000000000000000000000000000000008152600401610c0d90612e49565b60405180910390fd5b6000610c20610b5b565b9050610c30818787878787611a93565b60005b8451811015610de1576000858281518110610c5157610c50612ba1565b5b602002602001015190506000858381518110610c7057610c6f612ba1565b5b60200260200101519050600080600084815260200190815260200160002060008b73ffffffffffffffffffffffffffffffffffffffff1673ffffffffffffffffffffffffffffffffffffffff16815260200190815260200160002054905081811015610d11576040517f08c379a0000000000000000000000000000000000000000000000000000000008152600401610d0890612edb565b60405180910390fd5b81810360008085815260200190815260200160002060008c73ffffffffffffffffffffffffffffffffffffffff1673ffffffffffffffffffffffffffffffffffffffff168152602001908152602001600020819055508160008085815260200190815260200160002060008b73ffffffffffffffffffffffffffffffffffffffff1673ffffffffffffffffffffffffffffffffffffffff1681526020019081526020016000206000828254610dc69190612efb565b9250508190555050505080610dda90612bff565b9050610c33565b508473ffffffffffffffffffffffffffffffffffffffff168673ffffffffffffffffffffffffffffffffffffffff168273ffffffffffffffffffffffffffffffffffffffff167f4a39dc06d4c0dbc64b70af90fd698a233a518aa5d07e595d983b8c0526c8f7fb8787604051610e58929190612f2f565b60405180910390a4610e6e818787878787611a9b565b610e7c818787878787611aa3565b505050505050565b600073ffffffffffffffffffffffffffffffffffffffff168373ffffffffffffffffffffffffffffffffffffffff1603610ef3576040517f08c379a0000000000000000000000000000000000000000000000000000000008152600401610eea90612fd8565b60405180910390fd5b8051825114610f37576040517f08c379a0000000000000000000000000000000000000000000000000000000008152600401610f2e90612db7565b60405180910390fd5b6000610f41610b5b565b9050610f6181856000868660405180602001604052806000815250611a93565b60005b83518110156110ae576000848281518110610f8257610f81612ba1565b5b602002602001015190506000848381518110610fa157610fa0612ba1565b5b60200260200101519050600080600084815260200190815260200160002060008973ffffffffffffffffffffffffffffffffffffffff1673ffffffffffffffffffffffffffffffffffffffff16815260200190815260200160002054905081811015611042576040517f08c379a00000000000000000000000000000000000000000000000000000000081526004016110399061306a565b60405180910390fd5b81810360008085815260200190815260200160002060008a73ffffffffffffffffffffffffffffffffffffffff1673ffffffffffffffffffffffffffffffffffffffff1681526020019081526020016000208190555050505080806110a690612bff565b915050610f64565b50600073ffffffffffffffffffffffffffffffffffffffff168473ffffffffffffffffffffffffffffffffffffffff168273ffffffffffffffffffffffffffffffffffffffff167f4a39dc06d4c0dbc64b70af90fd698a233a518aa5d07e595d983b8c0526c8f7fb8686604051611126929190612f2f565b60405180910390a461114c81856000868660405180602001604052806000815250611a9b565b50505050565b61115a610b5b565b73ffffffffffffffffffffffffffffffffffffffff166111786107af565b73ffffffffffffffffffffffffffffffffffffffff16146111ce576040517f08c379a00000000000000000000000000000000000000000000000000000000081526004016111c5906130d6565b60405180910390fd5b565b6000600360009054906101000a900473ffffffffffffffffffffffffffffffffffffffff16905081600360006101000a81548173ffffffffffffffffffffffffffffffffffffffff021916908373ffffffffffffffffffffffffffffffffffffffff1602179055508173ffffffffffffffffffffffffffffffffffffffff168173ffffffffffffffffffffffffffffffffffffffff167f8be0079c531659141344cd1fd0a4f28419497f9722a3daafe3b4186f6b6457e060405160405180910390a35050565b600073ffffffffffffffffffffffffffffffffffffffff168473ffffffffffffffffffffffffffffffffffffffff1603611305576040517f08c379a00000000000000000000000000000000000000000000000000000000081526004016112fc90613168565b60405180910390fd5b600061130f610b5b565b9050600061131c85611c7a565b9050600061132985611c7a565b905061133a83600089858589611a93565b8460008088815260200190815260200160002060008973ffffffffffffffffffffffffffffffffffffffff1673ffffffffffffffffffffffffffffffffffffffff16815260200190815260200160002060008282546113999190612efb565b925050819055508673ffffffffffffffffffffffffffffffffffffffff16600073ffffffffffffffffffffffffffffffffffffffff168473ffffffffffffffffffffffffffffffffffffffff167fc3d58168c5ae7397731d063d5bbf3d657854427343f4c083240f7aacaa2d0f628989604051611417929190613188565b60405180910390a461142e83600089858589611a9b565b61143d83600089898989611cf4565b50505050505050565b8173ffffffffffffffffffffffffffffffffffffffff168373ffffffffffffffffffffffffffffffffffffffff16036114b4576040517f08c379a00000000000000000000000000000000000000000000000000000000081526004016114ab90613223565b60405180910390fd5b80600160008573ffffffffffffffffffffffffffffffffffffffff1673ffffffffffffffffffffffffffffffffffffffff16815260200190815260200160002060008473ffffffffffffffffffffffffffffffffffffffff1673ffffffffffffffffffffffffffffffffffffffff16815260200190815260200160002060006101000a81548160ff0219169083151502179055508173ffffffffffffffffffffffffffffffffffffffff168373ffffffffffffffffffffffffffffffffffffffff167f17307eab39ab6107e8899845ad3d59bd9653f200f220920489ca2b5937696c31836040516115a591906120a0565b60405180910390a3505050565b600073ffffffffffffffffffffffffffffffffffffffff168473ffffffffffffffffffffffffffffffffffffffff1603611621576040517f08c379a000000000000000000000000000000000000000000000000000000000815260040161161890612e49565b60405180910390fd5b600061162b610b5b565b9050600061163885611c7a565b9050600061164585611c7a565b9050611655838989858589611a93565b600080600088815260200190815260200160002060008a73ffffffffffffffffffffffffffffffffffffffff1673ffffffffffffffffffffffffffffffffffffffff168152602001908152602001600020549050858110156116ec576040517f08c379a00000000000000000000000000000000000000000000000000000000081526004016116e390612edb565b60405180910390fd5b85810360008089815260200190815260200160002060008b73ffffffffffffffffffffffffffffffffffffffff1673ffffffffffffffffffffffffffffffffffffffff168152602001908152602001600020819055508560008089815260200190815260200160002060008a73ffffffffffffffffffffffffffffffffffffffff1673ffffffffffffffffffffffffffffffffffffffff16815260200190815260200160002060008282546117a19190612efb565b925050819055508773ffffffffffffffffffffffffffffffffffffffff168973ffffffffffffffffffffffffffffffffffffffff168573ffffffffffffffffffffffffffffffffffffffff167fc3d58168c5ae7397731d063d5bbf3d657854427343f4c083240f7aacaa2d0f628a8a60405161181e929190613188565b60405180910390a4611834848a8a86868a611a9b565b611842848a8a8a8a8a611cf4565b505050505050505050565b600073ffffffffffffffffffffffffffffffffffffffff168373ffffffffffffffffffffffffffffffffffffffff16036118bc576040517f08c379a00000000000000000000000000000000000000000000000000000000081526004016118b390612fd8565b60405180910390fd5b60006118c6610b5b565b905060006118d384611c7a565b905060006118e084611c7a565b905061190083876000858560405180602001604052806000815250611a93565b600080600087815260200190815260200160002060008873ffffffffffffffffffffffffffffffffffffffff1673ffffffffffffffffffffffffffffffffffffffff16815260200190815260200160002054905084811015611997576040517f08c379a000000000000000000000000000000000000000000000000000000000815260040161198e9061306a565b60405180910390fd5b84810360008088815260200190815260200160002060008973ffffffffffffffffffffffffffffffffffffffff1673ffffffffffffffffffffffffffffffffffffffff16815260200190815260200160002081905550600073ffffffffffffffffffffffffffffffffffffffff168773ffffffffffffffffffffffffffffffffffffffff168573ffffffffffffffffffffffffffffffffffffffff167fc3d58168c5ae7397731d063d5bbf3d657854427343f4c083240f7aacaa2d0f628989604051611a64929190613188565b60405180910390a4611a8a84886000868660405180602001604052806000815250611a9b565b50505050505050565b505050505050565b505050505050565b611ac28473ffffffffffffffffffffffffffffffffffffffff16611ecb565b15611c72578373ffffffffffffffffffffffffffffffffffffffff1663bc197c8187878686866040518663ffffffff1660e01b8152600401611b08959493929190613298565b6020604051808303816000875af1925050508015611b4457506040513d601f19601f82011682018060405250810190611b419190613315565b60015b611be957611b5061334f565b806308c379a003611bac5750611b64613371565b80611b6f5750611bae565b806040517f08c379a0000000000000000000000000000000000000000000000000000000008152600401611ba39190612178565b60405180910390fd5b505b6040517f08c379a0000000000000000000000000000000000000000000000000000000008152600401611be090613473565b60405180910390fd5b63bc197c8160e01b7bffffffffffffffffffffffffffffffffffffffffffffffffffffffff1916817bffffffffffffffffffffffffffffffffffffffffffffffffffffffff191614611c70576040517f08c379a0000000000000000000000000000000000000000000000000000000008152600401611c6790613505565b60405180910390fd5b505b505050505050565b60606000600167ffffffffffffffff811115611c9957611c98612231565b5b604051908082528060200260200182016040528015611cc75781602001602082028036833780820191505090505b5090508281600081518110611cdf57611cde612ba1565b5b60200260200101818152505080915050919050565b611d138473ffffffffffffffffffffffffffffffffffffffff16611ecb565b15611ec3578373ffffffffffffffffffffffffffffffffffffffff1663f23a6e6187878686866040518663ffffffff1660e01b8152600401611d59959493929190613525565b6020604051808303816000875af1925050508015611d9557506040513d601f19601f82011682018060405250810190611d929190613315565b60015b611e3a57611da161334f565b806308c379a003611dfd5750611db5613371565b80611dc05750611dff565b806040517f08c379a0000000000000000000000000000000000000000000000000000000008152600401611df49190612178565b60405180910390fd5b505b6040517f08c379a0000000000000000000000000000000000000000000000000000000008152600401611e3190613473565b60405180910390fd5b63f23a6e6160e01b7bffffffffffffffffffffffffffffffffffffffffffffffffffffffff1916817bffffffffffffffffffffffffffffffffffffffffffffffffffffffff191614611ec1576040517f08c379a0000000000000000000000000000000000000000000000000000000008152600401611eb890613505565b60405180910390fd5b505b505050505050565b6000808273ffffffffffffffffffffffffffffffffffffffff163b119050919050565b6000604051905090565b600080fd5b600080fd5b600073ffffffffffffffffffffffffffffffffffffffff82169050919050565b6000611f2d82611f02565b9050919050565b611f3d81611f22565b8114611f4857600080fd5b50565b600081359050611f5a81611f34565b92915050565b6000819050919050565b611f7381611f60565b8114611f7e57600080fd5b50565b600081359050611f9081611f6a565b92915050565b60008060408385031215611fad57611fac611ef8565b5b6000611fbb85828601611f4b565b9250506020611fcc85828601611f81565b9150509250929050565b611fdf81611f60565b82525050565b6000602082019050611ffa6000830184611fd6565b92915050565b60007fffffffff0000000000000000000000000000000000000000000000000000000082169050919050565b61203581612000565b811461204057600080fd5b50565b6000813590506120528161202c565b92915050565b60006020828403121561206e5761206d611ef8565b5b600061207c84828501612043565b91505092915050565b60008115159050919050565b61209a81612085565b82525050565b60006020820190506120b56000830184612091565b92915050565b6000602082840312156120d1576120d0611ef8565b5b60006120df84828501611f81565b91505092915050565b600081519050919050565b600082825260208201905092915050565b60005b83811015612122578082015181840152602081019050612107565b60008484015250505050565b6000601f19601f8301169050919050565b600061214a826120e8565b61215481856120f3565b9350612164818560208601612104565b61216d8161212e565b840191505092915050565b60006020820190508181036000830152612192818461213f565b905092915050565b7f4e487b7100000000000000000000000000000000000000000000000000000000600052602160045260246000fd5b600381106121da576121d961219a565b5b50565b60008190506121eb826121c9565b919050565b60006121fb826121dd565b9050919050565b61220b816121f0565b82525050565b60006020820190506122266000830184612202565b92915050565b600080fd5b7f4e487b7100000000000000000000000000000000000000000000000000000000600052604160045260246000fd5b6122698261212e565b810181811067ffffffffffffffff8211171561228857612287612231565b5b80604052505050565b600061229b611eee565b90506122a78282612260565b919050565b600067ffffffffffffffff8211156122c7576122c6612231565b5b602082029050602081019050919050565b600080fd5b60006122f06122eb846122ac565b612291565b90508083825260208201905060208402830185811115612313576123126122d8565b5b835b8181101561233c57806123288882611f81565b845260208401935050602081019050612315565b5050509392505050565b600082601f83011261235b5761235a61222c565b5b813561236b8482602086016122dd565b91505092915050565b600080fd5b600067ffffffffffffffff82111561239457612393612231565b5b61239d8261212e565b9050602081019050919050565b82818337600083830152505050565b60006123cc6123c784612379565b612291565b9050828152602081018484840111156123e8576123e7612374565b5b6123f38482856123aa565b509392505050565b600082601f8301126124105761240f61222c565b5b81356124208482602086016123b9565b91505092915050565b600080600080600060a0868803121561244557612444611ef8565b5b600061245388828901611f4b565b955050602061246488828901611f4b565b945050604086013567ffffffffffffffff81111561248557612484611efd565b5b61249188828901612346565b935050606086013567ffffffffffffffff8111156124b2576124b1611efd565b5b6124be88828901612346565b925050608086013567ffffffffffffffff8111156124df576124de611efd565b5b6124eb888289016123fb565b9150509295509295909350565b600067ffffffffffffffff82111561251357612512612231565b5b602082029050602081019050919050565b6000612537612532846124f8565b612291565b9050808382526020820190506020840283018581111561255a576125596122d8565b5b835b81811015612583578061256f8882611f4b565b84526020840193505060208101905061255c565b5050509392505050565b600082601f8301126125a2576125a161222c565b5b81356125b2848260208601612524565b91505092915050565b600080604083850312156125d2576125d1611ef8565b5b600083013567ffffffffffffffff8111156125f0576125ef611efd565b5b6125fc8582860161258d565b925050602083013567ffffffffffffffff81111561261d5761261c611efd565b5b61262985828601612346565b9150509250929050565b600081519050919050565b600082825260208201905092915050565b6000819050602082019050919050565b61266881611f60565b82525050565b600061267a838361265f565b60208301905092915050565b6000602082019050919050565b600061269e82612633565b6126a8818561263e565b93506126b38361264f565b8060005b838110156126e45781516126cb888261266e565b97506126d683612686565b9250506001810190506126b7565b5085935050505092915050565b6000602082019050818103600083015261270b8184612693565b905092915050565b60008060006060848603121561272c5761272b611ef8565b5b600061273a86828701611f4b565b935050602084013567ffffffffffffffff81111561275b5761275a611efd565b5b61276786828701612346565b925050604084013567ffffffffffffffff81111561278857612787611efd565b5b61279486828701612346565b9150509250925092565b6127a781611f22565b82525050565b60006020820190506127c2600083018461279e565b92915050565b6127d181612085565b81146127dc57600080fd5b50565b6000813590506127ee816127c8565b92915050565b6000806040838503121561280b5761280a611ef8565b5b600061281985828601611f4b565b925050602061282a858286016127df565b9150509250929050565b6000806040838503121561284b5761284a611ef8565b5b600061285985828601611f4b565b925050602061286a85828601611f4b565b9150509250929050565b600080600080600060a086880312156128905761288f611ef8565b5b600061289e88828901611f4b565b95505060206128af88828901611f4b565b94505060406128c088828901611f81565b93505060606128d188828901611f81565b925050608086013567ffffffffffffffff8111156128f2576128f1611efd565b5b6128fe888289016123fb565b9150509295509295909350565b60006020828403121561292157612920611ef8565b5b600061292f84828501611f4b565b91505092915050565b60008060006060848603121561295157612950611ef8565b5b600061295f86828701611f4b565b935050602061297086828701611f81565b925050604061298186828701611f81565b9150509250925092565b7f455243313135353a2061646472657373207a65726f206973206e6f742061207660008201527f616c6964206f776e657200000000000000000000000000000000000000000000602082015250565b60006129e7602a836120f3565b91506129f28261298b565b604082019050919050565b60006020820190508181036000830152612a16816129da565b9050919050565b7f4e487b7100000000000000000000000000000000000000000000000000000000600052602260045260246000fd5b60006002820490506001821680612a6457607f821691505b602082108103612a7757612a76612a1d565b5b50919050565b7f455243313135353a2063616c6c6572206973206e6f7420746f6b656e206f776e60008201527f6572206f7220617070726f766564000000000000000000000000000000000000602082015250565b6000612ad9602e836120f3565b9150612ae482612a7d565b604082019050919050565b60006020820190508181036000830152612b0881612acc565b9050919050565b7f455243313135353a206163636f756e747320616e6420696473206c656e67746860008201527f206d69736d617463680000000000000000000000000000000000000000000000602082015250565b6000612b6b6029836120f3565b9150612b7682612b0f565b604082019050919050565b60006020820190508181036000830152612b9a81612b5e565b9050919050565b7f4e487b7100000000000000000000000000000000000000000000000000000000600052603260045260246000fd5b7f4e487b7100000000000000000000000000000000000000000000000000000000600052601160045260246000fd5b6000612c0a82611f60565b91507fffffffffffffffffffffffffffffffffffffffffffffffffffffffffffffffff8203612c3c57612c3b612bd0565b5b600182019050919050565b7f496e636f7272656374206d696e74207479706500000000000000000000000000600082015250565b6000612c7d6013836120f3565b9150612c8882612c47565b602082019050919050565b60006020820190508181036000830152612cac81612c70565b9050919050565b7f4f776e61626c653a206e6577206f776e657220697320746865207a65726f206160008201527f6464726573730000000000000000000000000000000000000000000000000000602082015250565b6000612d0f6026836120f3565b9150612d1a82612cb3565b604082019050919050565b60006020820190508181036000830152612d3e81612d02565b9050919050565b7f455243313135353a2069647320616e6420616d6f756e7473206c656e6774682060008201527f6d69736d61746368000000000000000000000000000000000000000000000000602082015250565b6000612da16028836120f3565b9150612dac82612d45565b604082019050919050565b60006020820190508181036000830152612dd081612d94565b9050919050565b7f455243313135353a207472616e7366657220746f20746865207a65726f20616460008201527f6472657373000000000000000000000000000000000000000000000000000000602082015250565b6000612e336025836120f3565b9150612e3e82612dd7565b604082019050919050565b60006020820190508181036000830152612e6281612e26565b9050919050565b7f455243313135353a20696e73756666696369656e742062616c616e636520666f60008201527f72207472616e7366657200000000000000000000000000000000000000000000602082015250565b6000612ec5602a836120f3565b9150612ed082612e69565b604082019050919050565b60006020820190508181036000830152612ef481612eb8565b9050919050565b6000612f0682611f60565b9150612f1183611f60565b9250828201905080821115612f2957612f28612bd0565b5b92915050565b60006040820190508181036000830152612f498185612693565b90508181036020830152612f5d8184612693565b90509392505050565b7f455243313135353a206275726e2066726f6d20746865207a65726f206164647260008201527f6573730000000000000000000000000000000000000000000000000000000000602082015250565b6000612fc26023836120f3565b9150612fcd82612f66565b604082019050919050565b60006020820190508181036000830152612ff181612fb5565b9050919050565b7f455243313135353a206275726e20616d6f756e7420657863656564732062616c60008201527f616e636500000000000000000000000000000000000000000000000000000000602082015250565b60006130546024836120f3565b915061305f82612ff8565b604082019050919050565b6000602082019050818103600083015261308381613047565b9050919050565b7f4f776e61626c653a2063616c6c6572206973206e6f7420746865206f776e6572600082015250565b60006130c06020836120f3565b91506130cb8261308a565b602082019050919050565b600060208201905081810360008301526130ef816130b3565b9050919050565b7f455243313135353a206d696e7420746f20746865207a65726f2061646472657360008201527f7300000000000000000000000000000000000000000000000000000000000000602082015250565b60006131526021836120f3565b915061315d826130f6565b604082019050919050565b6000602082019050818103600083015261318181613145565b9050919050565b600060408201905061319d6000830185611fd6565b6131aa6020830184611fd6565b9392505050565b7f455243313135353a2073657474696e6720617070726f76616c2073746174757360008201527f20666f722073656c660000000000000000000000000000000000000000000000602082015250565b600061320d6029836120f3565b9150613218826131b1565b604082019050919050565b6000602082019050818103600083015261323c81613200565b9050919050565b600081519050919050565b600082825260208201905092915050565b600061326a82613243565b613274818561324e565b9350613284818560208601612104565b61328d8161212e565b840191505092915050565b600060a0820190506132ad600083018861279e565b6132ba602083018761279e565b81810360408301526132cc8186612693565b905081810360608301526132e08185612693565b905081810360808301526132f4818461325f565b90509695505050505050565b60008151905061330f8161202c565b92915050565b60006020828403121561332b5761332a611ef8565b5b600061333984828501613300565b91505092915050565b60008160e01c9050919050565b600060033d111561336e5760046000803e61336b600051613342565b90505b90565b600060443d106133fe57613383611eee565b60043d036004823e80513d602482011167ffffffffffffffff821117156133ab5750506133fe565b808201805167ffffffffffffffff8111156133c957505050506133fe565b80602083010160043d0385018111156133e65750505050506133fe565b6133f582602001850186612260565b82955050505050505b90565b7f455243313135353a207472616e7366657220746f206e6f6e2d4552433131353560008201527f526563656976657220696d706c656d656e746572000000000000000000000000602082015250565b600061345d6034836120f3565b915061346882613401565b604082019050919050565b6000602082019050818103600083015261348c81613450565b9050919050565b7f455243313135353a204552433131353552656365697665722072656a6563746560008201527f6420746f6b656e73000000000000000000000000000000000000000000000000602082015250565b60006134ef6028836120f3565b91506134fa82613493565b604082019050919050565b6000602082019050818103600083015261351e816134e2565b9050919050565b600060a08201905061353a600083018861279e565b613547602083018761279e565b6135546040830186611fd6565b6135616060830185611fd6565b8181036080830152613573818461325f565b9050969550505050505056fea26469706673582212200c6db6caa4f401b98cb215f46ef8661adeaf4af3b513f357325bc1aeafeebd4564736f6c63430008110033",
  "linkReferences": {},
  "deployedLinkReferences": {}
}