{
  "_format": "hh-sol-artifact-1",
  "contractName": "Forged",
  "sourceName": "contracts/Forged.sol",
  "abi": [
    {
      "inputs": [
        {
          "internalType": "address",
          "name": "_baseTokenAddress",
          "type": "address"
        }
      ],
      "stateMutability": "nonpayable",
      "type": "constructor"
    },
    {
      "anonymous": false,
      "inputs": [
        {
          "indexed": true,
          "internalType": "address",
          "name": "account",
          "type": "address"
        },
        {
          "indexed": true,
          "internalType": "address",
          "name": "operator",
          "type": "address"
        },
        {
          "indexed": false,
          "internalType": "bool",
          "name": "approved",
          "type": "bool"
        }
      ],
      "name": "ApprovalForAll",
      "type": "event"
    },
    {
      "anonymous": false,
      "inputs": [
        {
          "indexed": true,
          "internalType": "address",
          "name": "previousOwner",
          "type": "address"
        },
        {
          "indexed": true,
          "internalType": "address",
          "name": "newOwner",
          "type": "address"
        }
      ],
      "name": "OwnershipTransferred",
      "type": "event"
    },
    {
      "anonymous": false,
      "inputs": [
        {
          "indexed": true,
          "internalType": "address",
          "name": "operator",
          "type": "address"
        },
        {
          "indexed": true,
          "internalType": "address",
          "name": "from",
          "type": "address"
        },
        {
          "indexed": true,
          "internalType": "address",
          "name": "to",
          "type": "address"
        },
        {
          "indexed": false,
          "internalType": "uint256[]",
          "name": "ids",
          "type": "uint256[]"
        },
        {
          "indexed": false,
          "internalType": "uint256[]",
          "name": "values",
          "type": "uint256[]"
        }
      ],
      "name": "TransferBatch",
      "type": "event"
    },
    {
      "anonymous": false,
      "inputs": [
        {
          "indexed": true,
          "internalType": "address",
          "name": "operator",
          "type": "address"
        },
        {
          "indexed": true,
          "internalType": "address",
          "name": "from",
          "type": "address"
        },
        {
          "indexed": true,
          "internalType": "address",
          "name": "to",
          "type": "address"
        },
        {
          "indexed": false,
          "internalType": "uint256",
          "name": "id",
          "type": "uint256"
        },
        {
          "indexed": false,
          "internalType": "uint256",
          "name": "value",
          "type": "uint256"
        }
      ],
      "name": "TransferSingle",
      "type": "event"
    },
    {
      "anonymous": false,
      "inputs": [
        {
          "indexed": false,
          "internalType": "string",
          "name": "value",
          "type": "string"
        },
        {
          "indexed": true,
          "internalType": "uint256",
          "name": "id",
          "type": "uint256"
        }
      ],
      "name": "URI",
      "type": "event"
    },
    {
      "inputs": [],
      "name": "BASE_TOKEN_ADDRESS",
      "outputs": [
        {
          "internalType": "address",
          "name": "",
          "type": "address"
        }
      ],
      "stateMutability": "view",
      "type": "function"
    },
    {
      "inputs": [
        {
          "internalType": "address",
          "name": "account",
          "type": "address"
        },
        {
          "internalType": "uint256",
          "name": "id",
          "type": "uint256"
        }
      ],
      "name": "balanceOf",
      "outputs": [
        {
          "internalType": "uint256",
          "name": "",
          "type": "uint256"
        }
      ],
      "stateMutability": "view",
      "type": "function"
    },
    {
      "inputs": [
        {
          "internalType": "address[]",
          "name": "accounts",
          "type": "address[]"
        },
        {
          "internalType": "uint256[]",
          "name": "ids",
          "type": "uint256[]"
        }
      ],
      "name": "balanceOfBatch",
      "outputs": [
        {
          "internalType": "uint256[]",
          "name": "",
          "type": "uint256[]"
        }
      ],
      "stateMutability": "view",
      "type": "function"
    },
    {
      "inputs": [
        {
          "internalType": "address",
          "name": "account",
          "type": "address"
        },
        {
          "internalType": "uint256",
          "name": "id",
          "type": "uint256"
        },
        {
          "internalType": "uint256",
          "name": "value",
          "type": "uint256"
        }
      ],
      "name": "burn",
      "outputs": [],
      "stateMutability": "nonpayable",
      "type": "function"
    },
    {
      "inputs": [
        {
          "internalType": "address",
          "name": "account",
          "type": "address"
        },
        {
          "internalType": "uint256[]",
          "name": "ids",
          "type": "uint256[]"
        },
        {
          "internalType": "uint256[]",
          "name": "values",
          "type": "uint256[]"
        }
      ],
      "name": "burnBatch",
      "outputs": [],
      "stateMutability": "nonpayable",
      "type": "function"
    },
    {
      "inputs": [],
      "name": "forgeCassandra",
      "outputs": [],
      "stateMutability": "nonpayable",
      "type": "function"
    },
    {
      "inputs": [],
      "name": "forgeDrake",
      "outputs": [],
      "stateMutability": "nonpayable",
      "type": "function"
    },
    {
      "inputs": [],
      "name": "forgeGeorge",
      "outputs": [],
      "stateMutability": "nonpayable",
      "type": "function"
    },
    {
      "inputs": [],
      "name": "forgeKimbo",
      "outputs": [],
      "stateMutability": "nonpayable",
      "type": "function"
    },
    {
      "inputs": [],
      "name": "forgeTypes",
      "outputs": [
        {
          "internalType": "enum Forged.ForgeTypes",
          "name": "",
          "type": "uint8"
        }
      ],
      "stateMutability": "view",
      "type": "function"
    },
    {
      "inputs": [
        {
          "internalType": "address",
          "name": "account",
          "type": "address"
        },
        {
          "internalType": "address",
          "name": "operator",
          "type": "address"
        }
      ],
      "name": "isApprovedForAll",
      "outputs": [
        {
          "internalType": "bool",
          "name": "",
          "type": "bool"
        }
      ],
      "stateMutability": "view",
      "type": "function"
    },
    {
      "inputs": [
        {
          "internalType": "uint256",
          "name": "tokenId",
          "type": "uint256"
        }
      ],
      "name": "mint",
      "outputs": [],
      "stateMutability": "nonpayable",
      "type": "function"
    },
    {
      "inputs": [],
      "name": "mintTypes",
      "outputs": [
        {
          "internalType": "enum Forged.MintTypes",
          "name": "",
          "type": "uint8"
        }
      ],
      "stateMutability": "view",
      "type": "function"
    },
    {
      "inputs": [],
      "name": "owner",
      "outputs": [
        {
          "internalType": "address",
          "name": "",
          "type": "address"
        }
      ],
      "stateMutability": "view",
      "type": "function"
    },
    {
      "inputs": [],
      "name": "renounceOwnership",
      "outputs": [],
      "stateMutability": "nonpayable",
      "type": "function"
    },
    {
      "inputs": [
        {
          "internalType": "address",
          "name": "from",
          "type": "address"
        },
        {
          "internalType": "address",
          "name": "to",
          "type": "address"
        },
        {
          "internalType": "uint256[]",
          "name": "ids",
          "type": "uint256[]"
        },
        {
          "internalType": "uint256[]",
          "name": "amounts",
          "type": "uint256[]"
        },
        {
          "internalType": "bytes",
          "name": "data",
          "type": "bytes"
        }
      ],
      "name": "safeBatchTransferFrom",
      "outputs": [],
      "stateMutability": "nonpayable",
      "type": "function"
    },
    {
      "inputs": [
        {
          "internalType": "address",
          "name": "from",
          "type": "address"
        },
        {
          "internalType": "address",
          "name": "to",
          "type": "address"
        },
        {
          "internalType": "uint256",
          "name": "id",
          "type": "uint256"
        },
        {
          "internalType": "uint256",
          "name": "amount",
          "type": "uint256"
        },
        {
          "internalType": "bytes",
          "name": "data",
          "type": "bytes"
        }
      ],
      "name": "safeTransferFrom",
      "outputs": [],
      "stateMutability": "nonpayable",
      "type": "function"
    },
    {
      "inputs": [
        {
          "internalType": "address",
          "name": "operator",
          "type": "address"
        },
        {
          "internalType": "bool",
          "name": "approved",
          "type": "bool"
        }
      ],
      "name": "setApprovalForAll",
      "outputs": [],
      "stateMutability": "nonpayable",
      "type": "function"
    },
    {
      "inputs": [
        {
          "internalType": "bytes4",
          "name": "interfaceId",
          "type": "bytes4"
        }
      ],
      "name": "supportsInterface",
      "outputs": [
        {
          "internalType": "bool",
          "name": "",
          "type": "bool"
        }
      ],
      "stateMutability": "view",
      "type": "function"
    },
    {
      "inputs": [
        {
          "internalType": "address",
          "name": "newOwner",
          "type": "address"
        }
      ],
      "name": "transferOwnership",
      "outputs": [],
      "stateMutability": "nonpayable",
      "type": "function"
    },
    {
      "inputs": [
        {
          "internalType": "uint256",
          "name": "",
          "type": "uint256"
        }
      ],
      "name": "uri",
      "outputs": [
        {
          "internalType": "string",
          "name": "",
          "type": "string"
        }
      ],
      "stateMutability": "view",
      "type": "function"
    }
  ],
  "bytecode": "0x60a06040523480156200001157600080fd5b506040516200430338038062004303833981810160405281019062000037919062000201565b604051806020016040528060008152506200005881620000b460201b60201c565b50620000796200006d620000c960201b60201c565b620000d160201b60201c565b8073ffffffffffffffffffffffffffffffffffffffff1660808173ffffffffffffffffffffffffffffffffffffffff16815250505062000594565b8060029081620000c59190620004ad565b5050565b600033905090565b6000600360009054906101000a900473ffffffffffffffffffffffffffffffffffffffff16905081600360006101000a81548173ffffffffffffffffffffffffffffffffffffffff021916908373ffffffffffffffffffffffffffffffffffffffff1602179055508173ffffffffffffffffffffffffffffffffffffffff168173ffffffffffffffffffffffffffffffffffffffff167f8be0079c531659141344cd1fd0a4f28419497f9722a3daafe3b4186f6b6457e060405160405180910390a35050565b600080fd5b600073ffffffffffffffffffffffffffffffffffffffff82169050919050565b6000620001c9826200019c565b9050919050565b620001db81620001bc565b8114620001e757600080fd5b50565b600081519050620001fb81620001d0565b92915050565b6000602082840312156200021a576200021962000197565b5b60006200022a84828501620001ea565b91505092915050565b600081519050919050565b7f4e487b7100000000000000000000000000000000000000000000000000000000600052604160045260246000fd5b7f4e487b7100000000000000000000000000000000000000000000000000000000600052602260045260246000fd5b60006002820490506001821680620002b557607f821691505b602082108103620002cb57620002ca6200026d565b5b50919050565b60008190508160005260206000209050919050565b60006020601f8301049050919050565b600082821b905092915050565b600060088302620003357fffffffffffffffffffffffffffffffffffffffffffffffffffffffffffffffff82620002f6565b620003418683620002f6565b95508019841693508086168417925050509392505050565b6000819050919050565b6000819050919050565b60006200038e62000388620003828462000359565b62000363565b62000359565b9050919050565b6000819050919050565b620003aa836200036d565b620003c2620003b98262000395565b84845462000303565b825550505050565b600090565b620003d9620003ca565b620003e68184846200039f565b505050565b5b818110156200040e5762000402600082620003cf565b600181019050620003ec565b5050565b601f8211156200045d576200042781620002d1565b6200043284620002e6565b8101602085101562000442578190505b6200045a6200045185620002e6565b830182620003eb565b50505b505050565b600082821c905092915050565b6000620004826000198460080262000462565b1980831691505092915050565b60006200049d83836200046f565b9150826002028217905092915050565b620004b88262000233565b67ffffffffffffffff811115620004d457620004d36200023e565b5b620004e082546200029c565b620004ed82828562000412565b600060209050601f83116001811462000525576000841562000510578287015190505b6200051c85826200048f565b8655506200058c565b601f1984166200053586620002d1565b60005b828110156200055f5784890151825560018201915060208501945060208101905062000538565b868310156200057f57848901516200057b601f8916826200046f565b8355505b6001600288020188555050505b505050505050565b608051613d4c620005b760003960008181610af90152610b920152613d4c6000f3fe608060405234801561001057600080fd5b50600436106101365760003560e01c8063715018a6116100b8578063e985e9c51161007c578063e985e9c5146102ed578063eb63cda91461031d578063eeb84d531461033b578063f242432a14610345578063f2fde38b14610361578063f5298aca1461037d57610136565b8063715018a6146102835780638da5cb5b1461028d578063a0712d68146102ab578063a22cb465146102c7578063db6d1739146102e357610136565b80632eb2c2d6116100ff5780632eb2c2d6146101f35780634e1273f41461020f57806360c3e7461461023f5780636b20c454146102495780636cee3abb1461026557610136565b8062fdd58e1461013b57806301a8d83c1461016b57806301ffc9a7146101755780630e89341c146101a557806310b3ef54146101d5575b600080fd5b61015560048036038101906101509190612587565b610399565b60405161016291906125d6565b60405180910390f35b610173610461565b005b61018f600480360381019061018a9190612649565b6105ec565b60405161019c9190612691565b60405180910390f35b6101bf60048036038101906101ba91906126ac565b6106ce565b6040516101cc9190612769565b60405180910390f35b6101dd610762565b6040516101ea9190612802565b60405180910390f35b61020d60048036038101906102089190612a1a565b610775565b005b61022960048036038101906102249190612bac565b610816565b6040516102369190612ce2565b60405180910390f35b61024761092f565b005b610263600480360381019061025e9190612d04565b610a5a565b005b61026d610af7565b60405161027a9190612d9e565b60405180910390f35b61028b610b1b565b005b610295610b2f565b6040516102a29190612d9e565b60405180910390f35b6102c560048036038101906102c091906126ac565b610b59565b005b6102e160048036038101906102dc9190612de5565b610b78565b005b6102eb610b8e565b005b61030760048036038101906103029190612e25565b610d4e565b6040516103149190612691565b60405180910390f35b610325610de2565b6040516103329190612ead565b60405180910390f35b610343610df5565b005b61035f600480360381019061035a9190612ec8565b610f21565b005b61037b60048036038101906103769190612f5f565b610fc2565b005b61039760048036038101906103929190612f8c565b611045565b005b60008073ffffffffffffffffffffffffffffffffffffffff168373ffffffffffffffffffffffffffffffffffffffff1603610409576040517f08c379a000000000000000000000000000000000000000000000000000000000815260040161040090613051565b60405180910390fd5b60008083815260200190815260200160002060008473ffffffffffffffffffffffffffffffffffffffff1673ffffffffffffffffffffffffffffffffffffffff16815260200190815260200160002054905092915050565b6000610480336000600281111561047b5761047a61278b565b5b610399565b116104c0576040517f08c379a00000000000000000000000000000000000000000000000000000000081526004016104b7906130bd565b60405180910390fd5b60006104df33600160028111156104da576104d961278b565b5b610399565b1161051f576040517f08c379a000000000000000000000000000000000000000000000000000000000815260040161051690613129565b60405180910390fd5b600061053d336002808111156105385761053761278b565b5b610399565b1161057d576040517f08c379a000000000000000000000000000000000000000000000000000000000815260040161057490613195565b60405180910390fd5b61059c33600060028111156105955761059461278b565b5b60016110e2565b6105bb33600160028111156105b4576105b361278b565b5b60016110e2565b6105ea33600060038111156105d3576105d261278b565b5b600160405180602001604052806000815250611328565b565b60007fd9b67a26000000000000000000000000000000000000000000000000000000007bffffffffffffffffffffffffffffffffffffffffffffffffffffffff1916827bffffffffffffffffffffffffffffffffffffffffffffffffffffffff191614806106b757507f0e89341c000000000000000000000000000000000000000000000000000000007bffffffffffffffffffffffffffffffffffffffffffffffffffffffff1916827bffffffffffffffffffffffffffffffffffffffffffffffffffffffff1916145b806106c757506106c6826114d8565b5b9050919050565b6060600280546106dd906131e4565b80601f0160208091040260200160405190810160405280929190818152602001828054610709906131e4565b80156107565780601f1061072b57610100808354040283529160200191610756565b820191906000526020600020905b81548152906001019060200180831161073957829003601f168201915b50505050509050919050565b600360149054906101000a900460ff1681565b61077d611542565b73ffffffffffffffffffffffffffffffffffffffff168573ffffffffffffffffffffffffffffffffffffffff1614806107c357506107c2856107bd611542565b610d4e565b5b610802576040517f08c379a00000000000000000000000000000000000000000000000000000000081526004016107f990613287565b60405180910390fd5b61080f858585858561154a565b5050505050565b6060815183511461085c576040517f08c379a000000000000000000000000000000000000000000000000000000000815260040161085390613319565b60405180910390fd5b6000835167ffffffffffffffff81111561087957610878612822565b5b6040519080825280602002602001820160405280156108a75781602001602082028036833780820191505090505b50905060005b8451811015610924576108f48582815181106108cc576108cb613339565b5b60200260200101518583815181106108e7576108e6613339565b5b6020026020010151610399565b82828151811061090757610906613339565b5b6020026020010181815250508061091d90613397565b90506108ad565b508091505092915050565b600061094e33600060028111156109495761094861278b565b5b610399565b1161098e576040517f08c379a0000000000000000000000000000000000000000000000000000000008152600401610985906130bd565b60405180910390fd5b60006109ac336002808111156109a7576109a661278b565b5b610399565b116109ec576040517f08c379a00000000000000000000000000000000000000000000000000000000081526004016109e390613195565b60405180910390fd5b610a0b3360006002811115610a0457610a0361278b565b5b60016110e2565b610a2933600280811115610a2257610a2161278b565b5b60016110e2565b610a583360016003811115610a4157610a4061278b565b5b600160405180602001604052806000815250611328565b565b610a62611542565b73ffffffffffffffffffffffffffffffffffffffff168373ffffffffffffffffffffffffffffffffffffffff161480610aa85750610aa783610aa2611542565b610d4e565b5b610ae7576040517f08c379a0000000000000000000000000000000000000000000000000000000008152600401610ade90613287565b60405180910390fd5b610af283838361186b565b505050565b7f000000000000000000000000000000000000000000000000000000000000000081565b610b23611b39565b610b2d6000611bb7565b565b6000600360009054906101000a900473ffffffffffffffffffffffffffffffffffffffff16905090565b610b753382600160405180602001604052806000815250611328565b50565b610b8a610b83611542565b8383611c7d565b5050565b60007f000000000000000000000000000000000000000000000000000000000000000073ffffffffffffffffffffffffffffffffffffffff1662fdd58e3360006002811115610be057610bdf61278b565b5b6040518363ffffffff1660e01b8152600401610bfd9291906133df565b6020604051808303816000875af1158015610c1c573d6000803e3d6000fd5b505050506040513d601f19601f82011682018060405250810190610c40919061341d565b11610c80576040517f08c379a0000000000000000000000000000000000000000000000000000000008152600401610c77906130bd565b60405180910390fd5b6000610c9f3360016002811115610c9a57610c9961278b565b5b610399565b11610cdf576040517f08c379a0000000000000000000000000000000000000000000000000000000008152600401610cd690613129565b60405180910390fd5b610cfe3360006002811115610cf757610cf661278b565b5b60016110e2565b610d1d3360016002811115610d1657610d1561278b565b5b60016110e2565b610d4c3360006003811115610d3557610d3461278b565b5b600160405180602001604052806000815250611328565b565b6000600160008473ffffffffffffffffffffffffffffffffffffffff1673ffffffffffffffffffffffffffffffffffffffff16815260200190815260200160002060008373ffffffffffffffffffffffffffffffffffffffff1673ffffffffffffffffffffffffffffffffffffffff16815260200190815260200160002060009054906101000a900460ff16905092915050565b600360159054906101000a900460ff1681565b6000610e143360016002811115610e0f57610e0e61278b565b5b610399565b11610e54576040517f08c379a0000000000000000000000000000000000000000000000000000000008152600401610e4b90613129565b60405180910390fd5b6000610e7233600280811115610e6d57610e6c61278b565b5b610399565b11610eb2576040517f08c379a0000000000000000000000000000000000000000000000000000000008152600401610ea990613195565b60405180910390fd5b610ed13360006002811115610eca57610ec961278b565b5b60016110e2565b610ef03360016002811115610ee957610ee861278b565b5b60016110e2565b610f1f3360006003811115610f0857610f0761278b565b5b600160405180602001604052806000815250611328565b565b610f29611542565b73ffffffffffffffffffffffffffffffffffffffff168573ffffffffffffffffffffffffffffffffffffffff161480610f6f5750610f6e85610f69611542565b610d4e565b5b610fae576040517f08c379a0000000000000000000000000000000000000000000000000000000008152600401610fa590613287565b60405180910390fd5b610fbb8585858585611de9565b5050505050565b610fca611b39565b600073ffffffffffffffffffffffffffffffffffffffff168173ffffffffffffffffffffffffffffffffffffffff1603611039576040517f08c379a0000000000000000000000000000000000000000000000000000000008152600401611030906134bc565b60405180910390fd5b61104281611bb7565b50565b61104d611542565b73ffffffffffffffffffffffffffffffffffffffff168373ffffffffffffffffffffffffffffffffffffffff16148061109357506110928361108d611542565b610d4e565b5b6110d2576040517f08c379a00000000000000000000000000000000000000000000000000000000081526004016110c990613287565b60405180910390fd5b6110dd8383836110e2565b505050565b600073ffffffffffffffffffffffffffffffffffffffff168373ffffffffffffffffffffffffffffffffffffffff1603611151576040517f08c379a00000000000000000000000000000000000000000000000000000000081526004016111489061354e565b60405180910390fd5b600061115b611542565b9050600061116884612084565b9050600061117584612084565b9050611195838760008585604051806020016040528060008152506120fe565b600080600087815260200190815260200160002060008873ffffffffffffffffffffffffffffffffffffffff1673ffffffffffffffffffffffffffffffffffffffff1681526020019081526020016000205490508481101561122c576040517f08c379a0000000000000000000000000000000000000000000000000000000008152600401611223906135e0565b60405180910390fd5b84810360008088815260200190815260200160002060008973ffffffffffffffffffffffffffffffffffffffff1673ffffffffffffffffffffffffffffffffffffffff16815260200190815260200160002081905550600073ffffffffffffffffffffffffffffffffffffffff168773ffffffffffffffffffffffffffffffffffffffff168573ffffffffffffffffffffffffffffffffffffffff167fc3d58168c5ae7397731d063d5bbf3d657854427343f4c083240f7aacaa2d0f6289896040516112f9929190613600565b60405180910390a461131f84886000868660405180602001604052806000815250612106565b50505050505050565b600073ffffffffffffffffffffffffffffffffffffffff168473ffffffffffffffffffffffffffffffffffffffff1603611397576040517f08c379a000000000000000000000000000000000000000000000000000000000815260040161138e9061369b565b60405180910390fd5b60006113a1611542565b905060006113ae85612084565b905060006113bb85612084565b90506113cc836000898585896120fe565b8460008088815260200190815260200160002060008973ffffffffffffffffffffffffffffffffffffffff1673ffffffffffffffffffffffffffffffffffffffff168152602001908152602001600020600082825461142b91906136bb565b925050819055508673ffffffffffffffffffffffffffffffffffffffff16600073ffffffffffffffffffffffffffffffffffffffff168473ffffffffffffffffffffffffffffffffffffffff167fc3d58168c5ae7397731d063d5bbf3d657854427343f4c083240f7aacaa2d0f6289896040516114a9929190613600565b60405180910390a46114c083600089858589612106565b6114cf8360008989898961210e565b50505050505050565b60007f01ffc9a7000000000000000000000000000000000000000000000000000000007bffffffffffffffffffffffffffffffffffffffffffffffffffffffff1916827bffffffffffffffffffffffffffffffffffffffffffffffffffffffff1916149050919050565b600033905090565b815183511461158e576040517f08c379a000000000000000000000000000000000000000000000000000000000815260040161158590613761565b60405180910390fd5b600073ffffffffffffffffffffffffffffffffffffffff168473ffffffffffffffffffffffffffffffffffffffff16036115fd576040517f08c379a00000000000000000000000000000000000000000000000000000000081526004016115f4906137f3565b60405180910390fd5b6000611607611542565b90506116178187878787876120fe565b60005b84518110156117c857600085828151811061163857611637613339565b5b60200260200101519050600085838151811061165757611656613339565b5b60200260200101519050600080600084815260200190815260200160002060008b73ffffffffffffffffffffffffffffffffffffffff1673ffffffffffffffffffffffffffffffffffffffff168152602001908152602001600020549050818110156116f8576040517f08c379a00000000000000000000000000000000000000000000000000000000081526004016116ef90613885565b60405180910390fd5b81810360008085815260200190815260200160002060008c73ffffffffffffffffffffffffffffffffffffffff1673ffffffffffffffffffffffffffffffffffffffff168152602001908152602001600020819055508160008085815260200190815260200160002060008b73ffffffffffffffffffffffffffffffffffffffff1673ffffffffffffffffffffffffffffffffffffffff16815260200190815260200160002060008282546117ad91906136bb565b92505081905550505050806117c190613397565b905061161a565b508473ffffffffffffffffffffffffffffffffffffffff168673ffffffffffffffffffffffffffffffffffffffff168273ffffffffffffffffffffffffffffffffffffffff167f4a39dc06d4c0dbc64b70af90fd698a233a518aa5d07e595d983b8c0526c8f7fb878760405161183f9291906138a5565b60405180910390a4611855818787878787612106565b6118638187878787876122e5565b505050505050565b600073ffffffffffffffffffffffffffffffffffffffff168373ffffffffffffffffffffffffffffffffffffffff16036118da576040517f08c379a00000000000000000000000000000000000000000000000000000000081526004016118d19061354e565b60405180910390fd5b805182511461191e576040517f08c379a000000000000000000000000000000000000000000000000000000000815260040161191590613761565b60405180910390fd5b6000611928611542565b9050611948818560008686604051806020016040528060008152506120fe565b60005b8351811015611a9557600084828151811061196957611968613339565b5b60200260200101519050600084838151811061198857611987613339565b5b60200260200101519050600080600084815260200190815260200160002060008973ffffffffffffffffffffffffffffffffffffffff1673ffffffffffffffffffffffffffffffffffffffff16815260200190815260200160002054905081811015611a29576040517f08c379a0000000000000000000000000000000000000000000000000000000008152600401611a20906135e0565b60405180910390fd5b81810360008085815260200190815260200160002060008a73ffffffffffffffffffffffffffffffffffffffff1673ffffffffffffffffffffffffffffffffffffffff168152602001908152602001600020819055505050508080611a8d90613397565b91505061194b565b50600073ffffffffffffffffffffffffffffffffffffffff168473ffffffffffffffffffffffffffffffffffffffff168273ffffffffffffffffffffffffffffffffffffffff167f4a39dc06d4c0dbc64b70af90fd698a233a518aa5d07e595d983b8c0526c8f7fb8686604051611b0d9291906138a5565b60405180910390a4611b3381856000868660405180602001604052806000815250612106565b50505050565b611b41611542565b73ffffffffffffffffffffffffffffffffffffffff16611b5f610b2f565b73ffffffffffffffffffffffffffffffffffffffff1614611bb5576040517f08c379a0000000000000000000000000000000000000000000000000000000008152600401611bac90613928565b60405180910390fd5b565b6000600360009054906101000a900473ffffffffffffffffffffffffffffffffffffffff16905081600360006101000a81548173ffffffffffffffffffffffffffffffffffffffff021916908373ffffffffffffffffffffffffffffffffffffffff1602179055508173ffffffffffffffffffffffffffffffffffffffff168173ffffffffffffffffffffffffffffffffffffffff167f8be0079c531659141344cd1fd0a4f28419497f9722a3daafe3b4186f6b6457e060405160405180910390a35050565b8173ffffffffffffffffffffffffffffffffffffffff168373ffffffffffffffffffffffffffffffffffffffff1603611ceb576040517f08c379a0000000000000000000000000000000000000000000000000000000008152600401611ce2906139ba565b60405180910390fd5b80600160008573ffffffffffffffffffffffffffffffffffffffff1673ffffffffffffffffffffffffffffffffffffffff16815260200190815260200160002060008473ffffffffffffffffffffffffffffffffffffffff1673ffffffffffffffffffffffffffffffffffffffff16815260200190815260200160002060006101000a81548160ff0219169083151502179055508173ffffffffffffffffffffffffffffffffffffffff168373ffffffffffffffffffffffffffffffffffffffff167f17307eab39ab6107e8899845ad3d59bd9653f200f220920489ca2b5937696c3183604051611ddc9190612691565b60405180910390a3505050565b600073ffffffffffffffffffffffffffffffffffffffff168473ffffffffffffffffffffffffffffffffffffffff1603611e58576040517f08c379a0000000000000000000000000000000000000000000000000000000008152600401611e4f906137f3565b60405180910390fd5b6000611e62611542565b90506000611e6f85612084565b90506000611e7c85612084565b9050611e8c8389898585896120fe565b600080600088815260200190815260200160002060008a73ffffffffffffffffffffffffffffffffffffffff1673ffffffffffffffffffffffffffffffffffffffff16815260200190815260200160002054905085811015611f23576040517f08c379a0000000000000000000000000000000000000000000000000000000008152600401611f1a90613885565b60405180910390fd5b85810360008089815260200190815260200160002060008b73ffffffffffffffffffffffffffffffffffffffff1673ffffffffffffffffffffffffffffffffffffffff168152602001908152602001600020819055508560008089815260200190815260200160002060008a73ffffffffffffffffffffffffffffffffffffffff1673ffffffffffffffffffffffffffffffffffffffff1681526020019081526020016000206000828254611fd891906136bb565b925050819055508773ffffffffffffffffffffffffffffffffffffffff168973ffffffffffffffffffffffffffffffffffffffff168573ffffffffffffffffffffffffffffffffffffffff167fc3d58168c5ae7397731d063d5bbf3d657854427343f4c083240f7aacaa2d0f628a8a604051612055929190613600565b60405180910390a461206b848a8a86868a612106565b612079848a8a8a8a8a61210e565b505050505050505050565b60606000600167ffffffffffffffff8111156120a3576120a2612822565b5b6040519080825280602002602001820160405280156120d15781602001602082028036833780820191505090505b50905082816000815181106120e9576120e8613339565b5b60200260200101818152505080915050919050565b505050505050565b505050505050565b61212d8473ffffffffffffffffffffffffffffffffffffffff166124bc565b156122dd578373ffffffffffffffffffffffffffffffffffffffff1663f23a6e6187878686866040518663ffffffff1660e01b8152600401612173959493929190613a2f565b6020604051808303816000875af19250505080156121af57506040513d601f19601f820116820180604052508101906121ac9190613a9e565b60015b612254576121bb613ad8565b806308c379a00361221757506121cf613afa565b806121da5750612219565b806040517f08c379a000000000000000000000000000000000000000000000000000000000815260040161220e9190612769565b60405180910390fd5b505b6040517f08c379a000000000000000000000000000000000000000000000000000000000815260040161224b90613bfc565b60405180910390fd5b63f23a6e6160e01b7bffffffffffffffffffffffffffffffffffffffffffffffffffffffff1916817bffffffffffffffffffffffffffffffffffffffffffffffffffffffff1916146122db576040517f08c379a00000000000000000000000000000000000000000000000000000000081526004016122d290613c8e565b60405180910390fd5b505b505050505050565b6123048473ffffffffffffffffffffffffffffffffffffffff166124bc565b156124b4578373ffffffffffffffffffffffffffffffffffffffff1663bc197c8187878686866040518663ffffffff1660e01b815260040161234a959493929190613cae565b6020604051808303816000875af192505050801561238657506040513d601f19601f820116820180604052508101906123839190613a9e565b60015b61242b57612392613ad8565b806308c379a0036123ee57506123a6613afa565b806123b157506123f0565b806040517f08c379a00000000000000000000000000000000000000000000000000000000081526004016123e59190612769565b60405180910390fd5b505b6040517f08c379a000000000000000000000000000000000000000000000000000000000815260040161242290613bfc565b60405180910390fd5b63bc197c8160e01b7bffffffffffffffffffffffffffffffffffffffffffffffffffffffff1916817bffffffffffffffffffffffffffffffffffffffffffffffffffffffff1916146124b2576040517f08c379a00000000000000000000000000000000000000000000000000000000081526004016124a990613c8e565b60405180910390fd5b505b505050505050565b6000808273ffffffffffffffffffffffffffffffffffffffff163b119050919050565b6000604051905090565b600080fd5b600080fd5b600073ffffffffffffffffffffffffffffffffffffffff82169050919050565b600061251e826124f3565b9050919050565b61252e81612513565b811461253957600080fd5b50565b60008135905061254b81612525565b92915050565b6000819050919050565b61256481612551565b811461256f57600080fd5b50565b6000813590506125818161255b565b92915050565b6000806040838503121561259e5761259d6124e9565b5b60006125ac8582860161253c565b92505060206125bd85828601612572565b9150509250929050565b6125d081612551565b82525050565b60006020820190506125eb60008301846125c7565b92915050565b60007fffffffff0000000000000000000000000000000000000000000000000000000082169050919050565b612626816125f1565b811461263157600080fd5b50565b6000813590506126438161261d565b92915050565b60006020828403121561265f5761265e6124e9565b5b600061266d84828501612634565b91505092915050565b60008115159050919050565b61268b81612676565b82525050565b60006020820190506126a66000830184612682565b92915050565b6000602082840312156126c2576126c16124e9565b5b60006126d084828501612572565b91505092915050565b600081519050919050565b600082825260208201905092915050565b60005b838110156127135780820151818401526020810190506126f8565b60008484015250505050565b6000601f19601f8301169050919050565b600061273b826126d9565b61274581856126e4565b93506127558185602086016126f5565b61275e8161271f565b840191505092915050565b600060208201905081810360008301526127838184612730565b905092915050565b7f4e487b7100000000000000000000000000000000000000000000000000000000600052602160045260246000fd5b600381106127cb576127ca61278b565b5b50565b60008190506127dc826127ba565b919050565b60006127ec826127ce565b9050919050565b6127fc816127e1565b82525050565b600060208201905061281760008301846127f3565b92915050565b600080fd5b7f4e487b7100000000000000000000000000000000000000000000000000000000600052604160045260246000fd5b61285a8261271f565b810181811067ffffffffffffffff8211171561287957612878612822565b5b80604052505050565b600061288c6124df565b90506128988282612851565b919050565b600067ffffffffffffffff8211156128b8576128b7612822565b5b602082029050602081019050919050565b600080fd5b60006128e16128dc8461289d565b612882565b90508083825260208201905060208402830185811115612904576129036128c9565b5b835b8181101561292d57806129198882612572565b845260208401935050602081019050612906565b5050509392505050565b600082601f83011261294c5761294b61281d565b5b813561295c8482602086016128ce565b91505092915050565b600080fd5b600067ffffffffffffffff82111561298557612984612822565b5b61298e8261271f565b9050602081019050919050565b82818337600083830152505050565b60006129bd6129b88461296a565b612882565b9050828152602081018484840111156129d9576129d8612965565b5b6129e484828561299b565b509392505050565b600082601f830112612a0157612a0061281d565b5b8135612a118482602086016129aa565b91505092915050565b600080600080600060a08688031215612a3657612a356124e9565b5b6000612a448882890161253c565b9550506020612a558882890161253c565b945050604086013567ffffffffffffffff811115612a7657612a756124ee565b5b612a8288828901612937565b935050606086013567ffffffffffffffff811115612aa357612aa26124ee565b5b612aaf88828901612937565b925050608086013567ffffffffffffffff811115612ad057612acf6124ee565b5b612adc888289016129ec565b9150509295509295909350565b600067ffffffffffffffff821115612b0457612b03612822565b5b602082029050602081019050919050565b6000612b28612b2384612ae9565b612882565b90508083825260208201905060208402830185811115612b4b57612b4a6128c9565b5b835b81811015612b745780612b60888261253c565b845260208401935050602081019050612b4d565b5050509392505050565b600082601f830112612b9357612b9261281d565b5b8135612ba3848260208601612b15565b91505092915050565b60008060408385031215612bc357612bc26124e9565b5b600083013567ffffffffffffffff811115612be157612be06124ee565b5b612bed85828601612b7e565b925050602083013567ffffffffffffffff811115612c0e57612c0d6124ee565b5b612c1a85828601612937565b9150509250929050565b600081519050919050565b600082825260208201905092915050565b6000819050602082019050919050565b612c5981612551565b82525050565b6000612c6b8383612c50565b60208301905092915050565b6000602082019050919050565b6000612c8f82612c24565b612c998185612c2f565b9350612ca483612c40565b8060005b83811015612cd5578151612cbc8882612c5f565b9750612cc783612c77565b925050600181019050612ca8565b5085935050505092915050565b60006020820190508181036000830152612cfc8184612c84565b905092915050565b600080600060608486031215612d1d57612d1c6124e9565b5b6000612d2b8682870161253c565b935050602084013567ffffffffffffffff811115612d4c57612d4b6124ee565b5b612d5886828701612937565b925050604084013567ffffffffffffffff811115612d7957612d786124ee565b5b612d8586828701612937565b9150509250925092565b612d9881612513565b82525050565b6000602082019050612db36000830184612d8f565b92915050565b612dc281612676565b8114612dcd57600080fd5b50565b600081359050612ddf81612db9565b92915050565b60008060408385031215612dfc57612dfb6124e9565b5b6000612e0a8582860161253c565b9250506020612e1b85828601612dd0565b9150509250929050565b60008060408385031215612e3c57612e3b6124e9565b5b6000612e4a8582860161253c565b9250506020612e5b8582860161253c565b9150509250929050565b60048110612e7657612e7561278b565b5b50565b6000819050612e8782612e65565b919050565b6000612e9782612e79565b9050919050565b612ea781612e8c565b82525050565b6000602082019050612ec26000830184612e9e565b92915050565b600080600080600060a08688031215612ee457612ee36124e9565b5b6000612ef28882890161253c565b9550506020612f038882890161253c565b9450506040612f1488828901612572565b9350506060612f2588828901612572565b925050608086013567ffffffffffffffff811115612f4657612f456124ee565b5b612f52888289016129ec565b9150509295509295909350565b600060208284031215612f7557612f746124e9565b5b6000612f838482850161253c565b91505092915050565b600080600060608486031215612fa557612fa46124e9565b5b6000612fb38682870161253c565b9350506020612fc486828701612572565b9250506040612fd586828701612572565b9150509250925092565b7f455243313135353a2061646472657373207a65726f206973206e6f742061207660008201527f616c6964206f776e657200000000000000000000000000000000000000000000602082015250565b600061303b602a836126e4565b915061304682612fdf565b604082019050919050565b6000602082019050818103600083015261306a8161302e565b9050919050565b7f4e65656420426f62000000000000000000000000000000000000000000000000600082015250565b60006130a76008836126e4565b91506130b282613071565b602082019050919050565b600060208201905081810360008301526130d68161309a565b9050919050565b7f4e656564204d6f72726973000000000000000000000000000000000000000000600082015250565b6000613113600b836126e4565b915061311e826130dd565b602082019050919050565b6000602082019050818103600083015261314281613106565b9050919050565b7f4e656564204a696d6d7900000000000000000000000000000000000000000000600082015250565b600061317f600a836126e4565b915061318a82613149565b602082019050919050565b600060208201905081810360008301526131ae81613172565b9050919050565b7f4e487b7100000000000000000000000000000000000000000000000000000000600052602260045260246000fd5b600060028204905060018216806131fc57607f821691505b60208210810361320f5761320e6131b5565b5b50919050565b7f455243313135353a2063616c6c6572206973206e6f7420746f6b656e206f776e60008201527f6572206f7220617070726f766564000000000000000000000000000000000000602082015250565b6000613271602e836126e4565b915061327c82613215565b604082019050919050565b600060208201905081810360008301526132a081613264565b9050919050565b7f455243313135353a206163636f756e747320616e6420696473206c656e67746860008201527f206d69736d617463680000000000000000000000000000000000000000000000602082015250565b60006133036029836126e4565b915061330e826132a7565b604082019050919050565b60006020820190508181036000830152613332816132f6565b9050919050565b7f4e487b7100000000000000000000000000000000000000000000000000000000600052603260045260246000fd5b7f4e487b7100000000000000000000000000000000000000000000000000000000600052601160045260246000fd5b60006133a282612551565b91507fffffffffffffffffffffffffffffffffffffffffffffffffffffffffffffffff82036133d4576133d3613368565b5b600182019050919050565b60006040820190506133f46000830185612d8f565b61340160208301846125c7565b9392505050565b6000815190506134178161255b565b92915050565b600060208284031215613433576134326124e9565b5b600061344184828501613408565b91505092915050565b7f4f776e61626c653a206e6577206f776e657220697320746865207a65726f206160008201527f6464726573730000000000000000000000000000000000000000000000000000602082015250565b60006134a66026836126e4565b91506134b18261344a565b604082019050919050565b600060208201905081810360008301526134d581613499565b9050919050565b7f455243313135353a206275726e2066726f6d20746865207a65726f206164647260008201527f6573730000000000000000000000000000000000000000000000000000000000602082015250565b60006135386023836126e4565b9150613543826134dc565b604082019050919050565b600060208201905081810360008301526135678161352b565b9050919050565b7f455243313135353a206275726e20616d6f756e7420657863656564732062616c60008201527f616e636500000000000000000000000000000000000000000000000000000000602082015250565b60006135ca6024836126e4565b91506135d58261356e565b604082019050919050565b600060208201905081810360008301526135f9816135bd565b9050919050565b600060408201905061361560008301856125c7565b61362260208301846125c7565b9392505050565b7f455243313135353a206d696e7420746f20746865207a65726f2061646472657360008201527f7300000000000000000000000000000000000000000000000000000000000000602082015250565b60006136856021836126e4565b915061369082613629565b604082019050919050565b600060208201905081810360008301526136b481613678565b9050919050565b60006136c682612551565b91506136d183612551565b92508282019050808211156136e9576136e8613368565b5b92915050565b7f455243313135353a2069647320616e6420616d6f756e7473206c656e6774682060008201527f6d69736d61746368000000000000000000000000000000000000000000000000602082015250565b600061374b6028836126e4565b9150613756826136ef565b604082019050919050565b6000602082019050818103600083015261377a8161373e565b9050919050565b7f455243313135353a207472616e7366657220746f20746865207a65726f20616460008201527f6472657373000000000000000000000000000000000000000000000000000000602082015250565b60006137dd6025836126e4565b91506137e882613781565b604082019050919050565b6000602082019050818103600083015261380c816137d0565b9050919050565b7f455243313135353a20696e73756666696369656e742062616c616e636520666f60008201527f72207472616e7366657200000000000000000000000000000000000000000000602082015250565b600061386f602a836126e4565b915061387a82613813565b604082019050919050565b6000602082019050818103600083015261389e81613862565b9050919050565b600060408201905081810360008301526138bf8185612c84565b905081810360208301526138d38184612c84565b90509392505050565b7f4f776e61626c653a2063616c6c6572206973206e6f7420746865206f776e6572600082015250565b60006139126020836126e4565b915061391d826138dc565b602082019050919050565b6000602082019050818103600083015261394181613905565b9050919050565b7f455243313135353a2073657474696e6720617070726f76616c2073746174757360008201527f20666f722073656c660000000000000000000000000000000000000000000000602082015250565b60006139a46029836126e4565b91506139af82613948565b604082019050919050565b600060208201905081810360008301526139d381613997565b9050919050565b600081519050919050565b600082825260208201905092915050565b6000613a01826139da565b613a0b81856139e5565b9350613a1b8185602086016126f5565b613a248161271f565b840191505092915050565b600060a082019050613a446000830188612d8f565b613a516020830187612d8f565b613a5e60408301866125c7565b613a6b60608301856125c7565b8181036080830152613a7d81846139f6565b90509695505050505050565b600081519050613a988161261d565b92915050565b600060208284031215613ab457613ab36124e9565b5b6000613ac284828501613a89565b91505092915050565b60008160e01c9050919050565b600060033d1115613af75760046000803e613af4600051613acb565b90505b90565b600060443d10613b8757613b0c6124df565b60043d036004823e80513d602482011167ffffffffffffffff82111715613b34575050613b87565b808201805167ffffffffffffffff811115613b525750505050613b87565b80602083010160043d038501811115613b6f575050505050613b87565b613b7e82602001850186612851565b82955050505050505b90565b7f455243313135353a207472616e7366657220746f206e6f6e2d4552433131353560008201527f526563656976657220696d706c656d656e746572000000000000000000000000602082015250565b6000613be66034836126e4565b9150613bf182613b8a565b604082019050919050565b60006020820190508181036000830152613c1581613bd9565b9050919050565b7f455243313135353a204552433131353552656365697665722072656a6563746560008201527f6420746f6b656e73000000000000000000000000000000000000000000000000602082015250565b6000613c786028836126e4565b9150613c8382613c1c565b604082019050919050565b60006020820190508181036000830152613ca781613c6b565b9050919050565b600060a082019050613cc36000830188612d8f565b613cd06020830187612d8f565b8181036040830152613ce28186612c84565b90508181036060830152613cf68185612c84565b90508181036080830152613d0a81846139f6565b9050969550505050505056fea2646970667358221220d493155d03b4c63341beb43cbefe6109a33036df93c8aebd423ee79b570c485c64736f6c63430008110033",
  "linkReferences": {},
  "deployedLinkReferences": {}
}